:100000009814002011160000094F0000E5150000AB
:10001000E5150000E5150000E515000000000000F2
:100020000000000000000000000000004913000074
:10003000E51500000000000001130000E5150000B8
:10004000C5130000C5130000C5130000C513000050
:10005000C5130000C5130000C5130000C513000040
:10006000C5130000C5130000C5130000C513000030
:10007000C5130000C5130000C5130000C513000020
:10008000C5130000C5130000C5130000C513000010
:10009000C5130000C5130000C5130000C513000000
:1000A000C5130000C5130000C5130000C5130000F0
:1000B000C5130000C5130000C5130000C5130000E0
:1000C000C5130000C5130000C5130000C5130000D0
:1000D000C5130000C5130000C5130000C5130000C0
:1000E000C5130000C5130000C5130000C5130000B0
:1000F000C5130000C5130000C5130000C5130000A0
:1001000053B94AB9002908BF00281CBF4FF0FF317E
:100110004FF0FF3000F00CB8ADF1080C6DE904CEE3
:1001200000F008F8DDF804E0DDE9022304B07047D0
:10013000704700BF2DE9F04F07468C460846099EE0
:1001400015463C461946002B40F0C6808242B2FA62
:1001500082F746D94FB1C7F1200E24FA0EFE00FAFD
:1001600007F3BD404EEA030CBC404FEA15481FFAA6
:1001700085FEBCFBF8F9220C08FB19C309FB0EFA3B
:1001800042EA03439A4528D9EB1809F1FF3004D21B
:100190009A4502D9A9F102002B44A3EB0A03A4B2A9
:1001A000B3FBF8F208FB123302FB0EFE44EA0344F1
:1001B000A64514D92C1902F1FF3303D2A64501D963
:1001C000931E2C44A4EB0E0443EA00401EB1FC40F5
:1001D000002334607360BDE8F08F4846DDE71346C6
:1001E000F0E702B9FFDE87BB831A01214FEA154E03
:1001F000AAB2B3FBFEFC200C0EFB1C330CFB02F876
:1002000040EA0343984563D9EB180CF1FF3004D260
:10021000984502D9ACF102002B44A3EB0803A4B229
:10022000B3FBFEFC0EFB1C330CFB02F244EA03445E
:10023000A2424FD92C190CF1FF3304D2A24202D9A9
:10024000ACF102032C44A41ABEE7C7F1200C20FA3B
:100250000CF800FA07F324FA0CFCBD404CEA030248
:100260004FEA154EABB2B8FBFEFC110C0EFB1C8026
:100270000CFB03F941EA0040814504FA07F423D955
:1002800028180CF1FF3104D2814502D9ACF10201EA
:100290002844A0EB090092B2B0FBFEFC0EFB1C0050
:1002A0000CFB03F842EA004398450FD9EB180CF118
:1002B000FF3204D2984502D9ACF102022B44A3EBE1
:1002C000080342EA014191E76146E2E76246F6E748
:1002D0006046A2E76346B6E7834205D90EB1C6E998
:1002E00000700021084676E7B3FA83F181B98342B2
:1002F00001D3BA420AD8BC1A60EB030301209C4622
:10030000002E68D0C6E9004C002164E70846F7E7F4
:10031000C1F1200C8B4022FA0CF41C4302FA01F5C7
:1003200000FA01F327FA0CF220FA0CFB4FEA144909
:100330001343BBFBF9F81FFA84FE09FB18BB1A0C28
:1003400008FB0EFA42EA0B42924507FA01F73ED942
:10035000A21808F1FF3004D2924502D9A8F1020098
:100360002244A2EB0A029BB2B2FBF9F809FB182265
:1003700008FB0EFE43EA024296452AD9A21808F16C
:10038000FF3304D2964502D9A8F10203224443EA7E
:100390000040A0FB0593A2EB0E029A42CE4698467F
:1003A00002D306D14F4504D2B9EB050E63EB040826
:1003B000013886B1B7EB0E0362EB080707FA0CFCB5
:1003C000CB404CEA0303CF40C6E900379CE74046E8
:1003D000C7E74346DBE73146FDE6000070B5144C45
:1003E000204605F089F808B32269A168136823F450
:1003F0000053136020460B684FF420220D219847CC
:10040000002813DB0B4E0C4DA3684FF400515B69C1
:1004100020469847002809DB3146284604F022FC94
:1004200000214FF4004003F061FFEDE770BD00BF15
:10043000CC5900009C5D0000A65D0000014B1B68CC
:10044000184700BF00000020014B1860704700BF34
:100450000000002007B50B4600210246009103482A
:1004600000F0E6F803B05DF804FB00BF3D040000B7
:100470002DE9F84FB0F8189019F008080446934693
:100480000DD001290CBF49F0100949F02009A0F84E
:1004900018908BF31188BFF36F8FBDE8F88F09F0C8
:1004A0000709022907D1204604F0E9FB0028F0D013
:1004B0000128238B4ED16769218B002F15DA25681F
:1004C00021F00701C4E9008841F0010121830026E1
:1004D000218B01F0070ACA4502D0A368002B5AD12C
:1004E0000DB9002E71D0002356E001F007035A1F0A
:1004F000012A1ED821F00701062B256889B2C4E91C
:1005000000880AD13DB1638B2A46126801339BB241
:10051000002AFAD1638341F002012183204604F0CE
:10052000AEFB06460028D3D0238B43F02003238361
:10053000CDE7042B0CD121F0070189B2218320469D
:1005400004F09DFB05460028C1D041F02001218325
:100550000025BCE7032809D1226923F007031668A8
:1005600043F00603238300252F46B1E7042806D174
:10057000226923F00703566843F00403F2E70528D5
:1005800006D1226923F00703966843F00503E9E7E3
:1005900000252E46E8E7012341F0080121838BF373
:1005A0001188BFF36F8FFBB985BB16B11F49204679
:1005B000B0474FF02003EFF3118B83F31288BFF3A2
:1005C0006F8F238B23F008032383238BDA0625D533
:1005D00023F0100323830121B4F8189009F00709D0
:1005E00000297FF45EAF54E7A1680029DCD0D1F880
:1005F0000090D1F804B03B4652462046D847B9F1A6
:10060000000FD1D04946D9F80090F2E729463B4681
:10061000524620462D6804F04EFBC5E713F020013A
:100620001EBF23F0200323830221D5E7E34C000003
:100630002DE9F04F91B08B46029092461C46002562
:100640009AF8000008B9284663E325280AF1010753
:1006500007D0029B594698470028C0F25A830135BB
:1006600012E2182200210AA804F07AFC9AF801305C
:10067000252B78D0002210469646944616463946D9
:1006800017F8013B2B2B00F09D8000F29480202B6B
:1006900000F09B80232B00F09B802EB19DF83060F2
:1006A00046F004068DF83060BCF1000F05D09DF8CF
:1006B000306046F008068DF83060BEF1000F05D0BE
:1006C0009DF8306046F010068DF8306028B19DF836
:1006D000300040F020008DF830002AB19DF8302025
:1006E00042F040028DF830209DF8302002F04400A6
:1006F000442803D16FF386128DF830209DF8302006
:100700002A2B42F080028DF830207BD19DF83120D9
:1007100042F001024B1C8DF831201A782E2A9DF8E8
:1007200031200CBF0121002161F341028DF83120FD
:1007300074D15A782A2A6AD0013300210A26184631
:1007400010F8012BA2F13007092F40F28E809DF89E
:1007500030200E91C2F3400040EAD17161F34102B2
:100760008DF830205AE00AF102078DF833309DF8F9
:100770003130D90740F1498154F8049BB9F1000F99
:1007800007DA9DF8302042F004028DF83020C9F1DC
:1007900000095A0740F1428154F8048BB8F1000F68
:1007A00080F241819DF831306FF341038DF8313093
:1007B0004FF0FF3837E12D2B0CD0302B7FF46DAF8D
:1007C00001225CE74FF0010C59E74FF0010E56E7AC
:1007D000012054E7012652E70CFB0202303A33466F
:1007E0001E4616F8010BA0F13007092FF4D99942E3
:1007F00093D09DF830100D92D20F62F341018DF825
:1008000030108AE70B4600224FF00A0CE8E79DF80B
:10081000312042F004028DF8312002331F4617F8D0
:10082000012B6C2A41D025D8682A2BD06A2A46D0C1
:100830004C2A4CD01F4617F8012B9DF831308DF80B
:100840003320782A00F2D980572A4DD8412A03D084
:10085000453A022A00F2D1809DF83230042262F338
:1008600002038DF8323001239EE006FB012130396E
:10087000034664E7742A26D07A2ADBD19DF831300A
:1008800006220DE05A78682A9DF8312006D1012110
:1008900061F3C6028DF831209F1CCCE7134602227B
:1008A00062F3C6038DF83130C5E75A786C2A9DF89B
:1008B000312001D10421EBE713460322F0E79DF834
:1008C00031300522ECE79DF831300722E8E7BDF82A
:1008D000303023F4F04323F0020343F4804343F029
:1008E0000203ADF83030A6E7A2F15801202900F24A
:1008F000848001A050F821F0BD090000FB09000030
:10090000FB090000FB090000FB090000FB090000D7
:10091000FB090000FB090000FB090000590800006A
:10092000FB090000BD0900007D0900005908000016
:100930005908000059080000FB0900007D0900006B
:10094000FB090000FB090000FB090000FB09000097
:10095000C5090000BD090000E1090000FB09000015
:10096000FB090000E1090000FB090000BD090000CF
:10097000FB090000FB090000BD0900009DF83210D2
:10098000012003F0780360F30201402B8DF8321050
:1009900002BF9DF8301041F001018DF83010632A3C
:1009A00031D1003B18BF01239DF83020C2F3400134
:1009B0000B4363F341028DF83020D8E69DF83210E6
:1009C0000220DEE79DF8322003F07803A3F1400017
:1009D000032161F3020243428DF832204341E3E7F1
:1009E0009DF83220032113F0780F61F302028DF895
:1009F000322014BF01230023D6E79DF8303043F0A6
:100A000001038DF830300023CEE79DF93020002A15
:100A1000B4BFDDF834904FF0FF39BAE69B077FF59D
:100A2000C7AEDDF838809DF831100023CDE90D33D5
:100A30009DF8323003F00703012BC1F3C30135D118
:100A4000CB1E042B22D8DFE803F003090921210083
:100A500054F8043BDA17CDE90A3206E0073424F0F3
:100A60000704F4E80223CDE90A239DF8303013F09F
:100A7000030659D002983B465246594604F01FFAE5
:100A80000028C0F246810544BA46D9E554F8043B33
:100A900001294FEAE372CDE90A3202D19DF92830EB
:100AA000D8E70229E1D1BDF92830D3E7022B29D1BB
:100AB000CB1E042B13D8DFE803F0030A0A1212003E
:100AC00022680A920023201D0B930446CDE7E01D07
:100AD00020F00700F0E80223CDE90A23F5E754F8F7
:100AE000043B0A9301294FF000030B9305D19DF8B5
:100AF00028300A9300230B93B7E70229B5D1BDF83C
:100B00002830F6E7042B09D1E31D23F0070303F196
:100B10000804D3E90023CDE90A23A6E7032B04BF89
:100B200054F8043B0A93A0E79DF833007828ABD82B
:100B3000622822D825283FF48CAD5828A4D10DF185
:100B400026030093DDE90A0104AB0CAA04F071F955
:100B50008246B8F1000F0DF126000CDB9DF8302025
:100B6000A0EB0A036FF3861298458DF8302002D966
:100B7000A8EB03030D9380463EE06338152883D825
:100B800001A252F820F000BF090C00006D0C00001B
:100B9000890A0000890A0000890A0000890A000009
:100BA0006D0C0000890A0000890A0000890A000013
:100BB000890A0000C70C0000950C0000990C000089
:100BC000890A0000890A0000E10B0000890A000080
:100BD000950C0000890A0000890A0000950C0000AD
:100BE000B8F1000FDDF828A00ADB4146504604F0BA
:100BF000A3F90AEB00080026BAF1000F0CD143E775
:100C0000504604F092F9F4E70A9B8DF81030002664
:100C10000DF1100A0DF11108A8EB0A0306B101331A
:100C20009DF83220D00668D5023352060D9948BF90
:100C30000E9A0B4448BF9B18B9F1000F76DD9DF862
:100C40003020A9EB0309C2F38003039353076DD44B
:100C5000500661D546B1029B594630469847002858
:100C600057DB039B01351E46302356E01E070FD489
:100C700013F0100618BF2026DDE90A23002BBFF66B
:100C80005EAF524263EB4303CDE90A232D2656E7BC
:100C90002B26F1E7002652E70A9840B30DF1260310
:100CA00000930CAA04AB002104F0C3F8BDF8323065
:100CB00003F0EF0343F4F04343F010038246ADF832
:100CC0003230002645E70A9B07293FF6DDAEDFE814
:100CD00001F00C04060C08080C0C1D70D4E61D80F5
:100CE000D2E6EA17C3E90052CEE61D60CCE6DFF893
:100CF000C8A006460AF105088EE7110748BF013370
:100D000093E7184603935946029B98470028039B94
:100D100004DA11B0BDE8F08F20234D444A46002A82
:100D2000A5EB090109F1FF39EBDC0D4636B1029B59
:100D30005946304698470028EBDB01359DF83230A4
:100D4000D90601D41A0706D5029B59463020984788
:100D50000028DEDB01359DF83230DB0607D59DF833
:100D60003300029B594698470028D2DB01350D9E7F
:100D70002E44731B002B16DC0298434652465946FC
:100D800004F09DF80028C4DB0544A944A9EB050341
:100D9000002B7FF779AE029B594620209847002808
:100DA000B7DB0135F2E7029B59463020984700280F
:100DB000AFDB0135DDE700BFB95D000008B54FF0DE
:100DC0002002EFF3118382F31288BFF36F8F00F0DC
:100DD0005FFD034803F046FF00F00AFAFCE700BF9E
:100DE000BF5D000001F0B4BD2DE9F84305464FF0AA
:100DF0002003EFF3118683F31288BFF36F8F0E4B3E
:100E00001C689CB10D4FDFF838804FF00C09D4E915
:100E10000132002D08BF13462BB198F8142009FBAE
:100E200002F2B85C98472468002CF0D186F3118850
:100E3000BFF36F8FBDE8F88390030020A403002068
:100E4000640A002038B51A4B1C7DBFF35B8F04F099
:100E50001F0301229A40174B6109D04303EB810322
:100E600053E8001F01EA000543E8005CBCF1000FF5
:100E7000F6D1BFF35B8F114213D00F4B0F4D8BB1E7
:100E80000C236343EA18E85C517804F081F80020F1
:100E9000FFF7AAFF0C235C432A1900232B51C2E958
:100EA000013338BD83F31188BFF36F8FEFE700BFC5
:100EB000640A0020B0030020914F0000A40300202A
:100EC0002DE9F041334B07461D7D4FF02003EFF332
:100ED000118883F31288BFF36F8F0C242E4B2F4E93
:100EE0006C431A19195D002949D007CA06EB040C96
:100EF0008CE8070000221A5588F31188BFF36F8F22
:100F00000C236B43F218F05CB8B37B1C0FD0D2F803
:100F100008C02348234A4FF4004400210023ECFB7F
:100F20000401FFF7EDF80121381A04F0C0FC02F0CB
:100F30005DFF0120FFF758FFBFF35B8F05F01F0235
:100F400001219140184A6B0902EB830353E8002FFB
:100F50000A4343E800200028F8D1BFF35B8F134B0E
:100F600033B10C2068433318305C597804F004F82E
:100F7000FFF768FF03F00AF90120BDE8F0810146A0
:100F8000284600F015F80028B6D007C8344484E895
:100F90000700B1E7640A002098030020A4030020A2
:100FA0003F420F0040420F00B0030020794F000085
:100FB0002DE9F04F85B00E4603A900F041F8039BE0
:100FC00001931C4BDFF87080D3F800A0441E24B2BC
:100FD0004FF400474FF0000B631C04D10025284656
:100FE00005B0BDE8F08F019B144A04EB440503EB08
:100FF0008505C44668685946E0FB07C10023604682
:10100000FFF77EF88146A8680C4AC4465946E0FBC3
:1010100007C100236046FFF773F8BAF1FF3F01D024
:10102000824504D9721CDAD04844B042D7D9013C79
:1010300024B2D1E7040000203F420F0040420F00DD
:1010400008B9024B0B600020704700BFD85B00005E
:10105000014803F05BBC00BFD85B000010B504463C
:1010600018B90D4B0D485B689847616808290DD089
:1010700031F004030AD011F0020108D008482146DB
:1010800004F07EFA002323600023636010BD206813
:10109000142203F065FFF7E7CC000020E85D0000B4
:1010A000B403002008B508B34368042B10D1012213
:1010B0000368BFF35B8F53E8001F002903D143E8A7
:1010C00000200028F7D1BFF35B8F0BD1002008BDB3
:1010D00053B100684FF0FF324FF0FF3302F00EFCC7
:1010E0000028F3D00348F2E70348F0E76FF4E0404C
:1010F000EDE700BFE98FFFFFEA8FFFFF08B5D0B132
:101100004368042B11D100220368BFF35B8F53E8BF
:10111000001F012903D143E800200028F7D1BFF3C5
:101120005B8F074808BF104608BD3BB1006802F05E
:101130005DFC0020F8E76FF4E040F5E70148F3E7D5
:10114000E98FFFFFEA8FFFFF10B5044618B9164B71
:1011500016485B6898476368042B23D0082B21D07E
:10116000CBB92368BBB912484FF0FF324FF0FF33C1
:10117000214602F0C1FA08B923681BB90A4B0D4891
:101180005B68984720681422002103F0E9FE636839
:1011900043F002036360206804F035FA636843F0AB
:1011A0000103636010BD00BFCC000020E85D0000BB
:1011B000B40300200E5E000008B50649064840232F
:1011C000142204F0C2F9BDE808400449044803F0C1
:1011D000FDBB00BFD0030020B4030020F05B000083
:1011E000E05B0000014910220A60704710ED00E04A
:1011F00072B6404080F31188BFF36F8FBFF34F8FFB
:1012000030BF62B6BFF36F8F704700BF72B6494000
:1012100081F3118820BF80F3118862B6704700BF48
:1012200043B2002B08DB012200F01F0002FA00F09D
:101230005B09024A42F82300704700BF00E100E06A
:10124000054B420900F01F0053F82220012303FA46
:1012500000F01040704700BF00E100E043B2002BF7
:10126000A8BF03F1604301F10101B8BF064B4FEA8B
:101270004111ACBF03F5614300F00F00C9B2B4BF28
:10128000195483F80013704714ED00E030BFFFF7E6
:10129000FDBF00BF0B4A08B50B4B22F07F029A60DE
:1012A000BFF34F8FBFF36F8FD3F8882022F4700203
:1012B000C3F8882002F054F903F0AAF800F09CF972
:1012C00002F08EF90000000000ED00E0094A0A4932
:1012D000936809689967094958674B6843F08053D8
:1012E0004B60002383F31188BFF36F8F9368986F6F
:1012F000704700BF640A0020105D000000ED00E0B0
:101300000F498A684FF030001044EFF3098C80E8F1
:10131000F01F202080F31288BFF36F8F094F4FF02A
:101320000066CA698A603E60506F0023536780F38D
:10133000118802F1300090E8F01F8CF309887047A3
:10134000640A002004ED00E01EF0040F0CBFEFF370
:101350000880EFF30980816911F8021C0229FFD08F
:1013600001B503F0C9FD01BD42F8203C009B42F8E5
:101370001C3C0A49019B42F8183C029B42F8143C71
:1013800021F001014FF0807342F8043C42F8081C40
:101390000023203A02654367704700BF1F4E0000DC
:1013A000074B9860104681F30988002163B681F3EA
:1013B0001188BFF36F8F0022002303F030FD00BFC0
:1013C000640A002001B572B60B4A906900281EBF5E
:1013D0000021916104F008F962B6EFF30580A0F1F5
:1013E00010004FEAC0000549014409C99847BDE80B
:1013F0000140034908470000640A00202C5A0000FD
:1014000005140000044B9968D869884203D0034949
:101410004FF080520A607047640A002004ED00E03B
:101420000D4B9A6A9A6A9A6A920508D59A6B9A6ADB
:10143000120404D518B19A6A22F400429A62064B4B
:101440009A6A9A6AD20558BF9A6A9A6A002042F448
:101450007F429A620870704700ED00E0124B9A6A72
:101460009A6A9A6A920708D55A6B9A6A120604D544
:1014700018B19A6A22F080029A620B4B9A6A9A6AB1
:101480009A6AD00658BF9A6A9A6A920642BF5A6A06
:1014900022F400525A62044A936A002043F0FF0388
:1014A00093620870704700BF00ED00E0F0B5474B55
:1014B0005B688BB00E46C3F30803002585F31188E3
:1014C000BFF36F8F02F07F41B1F17F4F11D102F076
:1014D0000C0108290DD0120701D40646012500226F
:1014E000033B8DF80720032B53D8DFE803F00454A7
:1014F000585C2E46F3E7354BDC6A14F0020448D101
:10150000DA6A002A15DBDC6A14F0804411D0B26973
:1015100032F8021C4DF60272914209D09A6AD2B298
:1015200002B30DF107010120FFF798FF044600E028
:1015300034689DF807309BB92022314602A803F099
:1015400004FD099B002D3BD0C3F3080222B96FEACA
:1015500053236FEA4323099302A9204603F0CAFCF0
:101560000BB0F0BD9F6A17F47F4705D00DF107015E
:101570000120FFF755FFD9E79C6A15490C40D8D0E8
:101580009A6A9A6A9A6A9A6A9A6A9A6A9A6A0A43F2
:101590009A620024CDE70DF107010020C4E70DF1A8
:1015A00007010020E5E7094B9A6A9A6A9A6A9A6AE3
:1015B0009A6A9A6A9A6A6FEA02426FEA1242E7E707
:1015C00023F4FF7323F00103C5E700BF00ED00E043
:1015D0000000FFFF024A536943F010035361704754
:1015E00000ED00E0EFF30880EFF3098101B57246EA
:1015F000FFF75CFF01BD00BF044800232021C21893
:101600000133302B82F80013F9D1704700E100E07C
:10161000002080F31488BFF36F8FFFF7E3FB0020F7
:101620000D490860BFF34F8F0C4880F3088800F025
:101630002BF8202080F3118809484FF400614018EE
:1016400080F30988EFF314800221084380F31488A3
:10165000BFF36F8FFFF71EFE94ED00E0981400209B
:10166000D81500200749D1F890200023C2F30722A3
:101670001846934200D17047C1F89830C1F8A000D5
:101680000133F6E700ED00E008B572B6002383F3FE
:101690001388FFF7E7FF144B4FF0FF32C3F88020A9
:1016A000C3F88420C3F88820C3F88C20C3F89020A6
:1016B000C3F89420C3F89820C3F89C20C3F8802175
:1016C000C3F88421C3F88821C3F88C21C3F8902182
:1016D000C3F89421C3F89821C3F89C2162B6BFF3E4
:1016E0004F8FBFF36F8F08BD00E100E0084B9B6890
:1016F00083420BD1EFF3058343B1064B5A6842F0A6
:1017000080525A605A6A22F400425A6202F00EBEB7
:10171000640A002000ED00E0024B034A0348012167
:1017200000F05EB80000042000000020045C00000F
:10173000F0B51F4F00268E4201DB1046F0BD446815
:101740009CB353B104F1FF3C14EA0C0F18D11F2CC9
:1017500016D905681CEA050F12D1202C0568D0F8AF
:1017600008C0D2B20FD9B4F1004F0ED8013CB4FA80
:1017700084F4C4F11F046400072A4CEA040406D967
:101780006FF01502D9E70824F6E73E24F4E725F0C8
:101790001F05154345F0100544F00104C7F89820D3
:1017A000C7F89C500132C7F8A04001360C30C2E7A0
:1017B00000ED00E0044B0522C3F89420BFF34F8FE7
:1017C000BFF36F8F704700BF00ED00E0BFF35F8F86
:1017D000024B0022C3F89420704700BF00ED00E0E8
:1017E00010B5034C01232278FFF7A2FF207010BD33
:1017F0007E0C002014490868082810B521D8FFF78E
:10180000E5FF124C49680022904201F10C0105D11C
:101810000F4B1870FFF7CEFF002010BDC4F89820C2
:1018200051F80C3C23F01F03134343F01003C4F89A
:101830009C3051F8043C43F00103C4F8A03001325D
:10184000E2E74FF0FF30E8E7105C000000ED00E059
:101850007E0C0020014B1860704700BF280000205C
:101860004FF02003EFF3118283F31288BFF36F8FE1
:1018700006490123C1F840354FF08041C1F8783561
:1018800082F31188BFF36F8F0020704700E00140A2
:101890004FF08043C0B2C3F81C05BFF34F8F05491A
:1018A000054BCA6802F4E0621343CB60BFF34F8F6D
:1018B00000BFFDE700ED00E00400FA0520B1034B96
:1018C000800143F001031847704700BFD05B000060
:1018D000084B70B5C31A0D4607499B10044659437F
:1018E0000648402203F076FB2B4601462046BDE821
:1018F00070401847E0080020B76DDBB6B45900000F
:1019000073B50C4C0C4A4023041B00930D460B4648
:101910000A49A41061430646094803F087FB011EEB
:1019200005DA30462B4602B0BDE87040184702B0D9
:1019300070BD00BFE00800209D500000B76DDBB611
:10194000B4590000002270B5012104461046FFF78B
:1019500085FC114801F082F9104B984218D120699A
:1019600000F0C4F903F0D0FC26690D49304603F0BD
:10197000D5F900280BDB246909490125356404F1F8
:101980001C0003F0CBF9002801DBE564002070BDEA
:101990006FF00400FBE700BFD91900000000AD0B99
:1019A0005C5C000001460C2309484B4370B5C41829
:1019B000D4E90E5600224033A263184403F0F7FA2C
:1019C0002DB132462B460348BDE87040184770BD24
:1019D000E0080020B4590000012810B504460AD0E0
:1019E00003280CD078B9084B1B6C5B070BD1BDE802
:1019F0001040FFF7D7BF00F087F92046F7E7BDE8B2
:101A0000104000F08FB910BDE008002008B54FF07D
:101A10002003EFF3118183F31288BFF36F8F124A13
:101A2000136843F0020013F0010310600CD04FF074
:101A30008042D2F80C34D2F80C2413F0010303D006
:101A40000A4803F0B4FA012381F31188BFF36F8FC2
:101A500023B1BDE808400020FFF7A4BFBDE808405F
:101A6000012003F05EBC00BF3009002020090020E7
:101A70001FB500220123CDE90223094ACDF800D089
:101A80006B46CDF804D003F002FB002805DB4FF4D1
:101A900080420023684602F005F805B05DF804FBBB
:101AA000B5500000094BBFF35B8F53E8002F22F0C5
:101AB000020143E800100028F7D1BFF35B8FD30782
:101AC00002D4012003F065BC704700BF300900203C
:101AD000024AC3B21C2003FB00207047E00800202C
:101AE000F8B52849BFF35B8F0646012251E8003F55
:101AF00041E800200028F9D1BFF35B8F33B92249B8
:101B000022484B60CB608A6003F01BF9731E012BE7
:101B100020D803F05EFD044610B91D4B1B7853BB63
:101B20004FF02003EFF3118583F31288BFF36F8F1B
:101B300001244FF08047D7F81834D7F81824D2037F
:101B400009D59B0701D0012E05D174B185F3118809
:101B5000BFF36F8FF8BD1CB12846FFF757FBEAE7CC
:101B60000021212002F0C2FBE5E74FF08043022272
:101B7000C3F80423EEE74FF080430222C3F80823A2
:101B80000546D6E734090020D0080020FC080020D4
:101B9000911000200D4BBFF35B8F012253E8001F13
:101BA000002903D143E800200028F7D1BFF35B8F61
:101BB0000AD107490023CB60064B4B6003238B609F
:101BC000054B186803F0BDB8704700BF3809002006
:101BD0003C090020C11C00004C09002008B5054B41
:101BE0000548186003F088FC00280CBF6FF0120055
:101BF000002008BD50090020145A000007B500223B
:101C00000023CDE9002308484FF40032002302F0FE
:101C1000BDFD064B186803F0DDF8054B00221A6085
:101C200003B05DF804FB00BF400100204C09002018
:101C30003809002037B51D4D286883681C4CDB68C7
:101C40003921984770B1002323701A46217809B1D1
:101C5000012A20DD174A138001F012F801232370B6
:101C600003B030BD286883686A461B690C21984719
:101C70000028E8D1104A019B93FBF2F3009A03EB92
:101C800082030C4AB2F900201BB29A1A002AB8BF8C
:101C9000524212B2DAE7094A13680139013321705E
:101CA000136003B0BDE83040FFF7A8BF5009002023
:101CB0007F0C00207C0C002090D0030058090020ED
:101CC00008B5074B1B682BB900F0DAFF054B012262
:101CD0001A7008BDBDE80840034801F0F1BF00BF1D
:101CE000500900207F0C00202C000020034B044AE8
:101CF000186000231360034A136070474C090020EA
:101D00005409002058090020024B00221A70FFF7E6
:101D100041BF00BF7F0C0020014803F0ECBD00BFB5
:101D200040010020024A136801331360FFF766BFC9
:101D30005409002010B5044C2046FEF785FB2046D0
:101D4000FFF788FD002010BD4D1D0000F7B5144EB3
:101D50008DF8070004460325EFF311874FF02001AB
:101D600081F3118801220DF10701002001F08EFBA3
:101D700087F3118820B101233370204603B0F0BDF2
:101D80003378002BF9D0013D08D003F022FC002865
:101D9000E2D10021422002F0A9FADDE73570ECE73C
:101DA000800C002008B5084B0848186003F0A4FB1D
:101DB00038B10748FFF74EFD0548FEF745FB002008
:101DC00008BD6FF01200FBE75C090020FC59000021
:101DD000D51D00000A2838B5074D044604D12868EF
:101DE00083680D215B68984728688368E1B25B6867
:101DF0009847204638BD00BF5C09002030B54068D8
:101E0000047B01F01F05B2F5001F45EA441585B0BB
:101E10004FF0000405D1284601F0E0F9002005B09C
:101E200030BDB2F5800FCDE9024434D1B3F1007F6B
:101E30000CBF042305238DF80830836823FA01F1D1
:101E4000C9071AD4B2F1A07F17D16A09012A05F097
:101E50001F031C4A03F5E07318BF4FF0A04252F86D
:101E60002330DB0709D40DF107042146284601F091
:101E700019F9154B984219D003940023194602AA68
:101E8000284600F0E9FF114B984218D1012128465D
:101E900001F05CF9C2E7B3F1C06F05D0B3F1007F88
:101EA0000CBF02230123C6E70323C4E7204601F049
:101EB00047F9064B9842DFD06FF00B00AFE76FF0A9
:101EC0001500ACE7000300500400AD0B0000AD0BA3
:101ED00010B501F025F9044668B901F0F9F8084B8E
:101EE00098420AD10748214601F0D6F8224605213A
:101EF0000620FFF7B3F9002010BD6FF00400FBE7E8
:101F00000000AD0B091F0000420970B5034602D066
:101F1000012A15D070BD0B4E326951680029F9D0E5
:101F200003F01F0301250C689D408A682A4002D0F7
:101F30004B6830469847002CECD021462468F4E7E3
:101F4000014EE9E7CC590000E45900002DE9F043C7
:101F5000D0F8048098F80C3001F01F0685B046EAEE
:101F600043160F4630460DF10301144601F09AF86E
:101F700014F4403581460BD1304601F057F9434BFC
:101F8000994503D19DF8030001F0D4F8002057E0F3
:101F90000023194602AA3046CDE9023300F05CFF67
:101FA0003A4B984202D06FF0150049E0814503D1C9
:101FB0009DF8030001F0BEF8A50354D540F20633A6
:101FC0002340B3F5837F3ED00CD8062B15D004D820
:101FD0009BB1022BE7D104230FE0B3F5807FE2D160
:101FE00001230AE040F2022293422ED0B3F5407F53
:101FF0002DD0B3F5007FD6D102238DF8043084F4C0
:102000008033C3F30043E0068DF8053054BFC4F3BA
:102010004013032321038DF806301AD5D8F8043075
:10202000012101FA07F7C3F80875002201A930461B
:1020300000F0C0FF154B984214BF6FF01500002050
:1020400005B0BDE8F0830723D7E70523D5E70323D1
:10205000D3E7620341BFD8F80430012101FA07F742
:10206000C3F80C75E1E7E3064FF0000354BFC4F377
:10207000401403241A4601A930468DF8044000F0AC
:10208000EBFE024B984281D08DE700BF0000AD0B04
:10209000014B01221A60704700C000400C290369FF
:1020A0000BD15B6A064907484B4393FBF0F100FBF9
:1020B000113311605360002070476FF08500704746
:1020C00090D0030040420F00044B00690022C3F887
:1020D0000021D3F8003101F0C5BC00BF00C00040B2
:1020E0007FB50569AB6A63B3392901D00C292BD1BF
:1020F00005F110064FF0FF324FF0FF33304601F08C
:10210000FDFB134B0193A86A032300246946039443
:10211000029302F016FE4FF0FF324FF0FF332846D5
:1021200001F0C0FCA86A02F055FE0A4BD3F808255E
:102130006A6201225A60304601F058FC204604B021
:1021400070BD6FF00A00FAE76FF08500F7E700BF97
:102150009120000000C0004010B504690020FFF786
:10216000B7FCA0624FF0FF320021204603F052FA84
:1021700004F1100003F047FA002201210C20FFF7C0
:102180006DF80C20FFF74CF8024B0122C3F8042332
:10219000002010BD00C00040074BD3F8082142B119
:1021A0000020C3F80801D3F80821D3F818350B70C4
:1021B00070474FF0FF30704700200040024BD3F8CB
:1021C0008004C3F8800470470020004030B54B798C
:1021D000012B22D0032B1DD110258B79032B19D174
:1021E000CB79BBB90A7912B1022A13D10E220B683E
:1021F000B3F5164F61D02DD8B3F5165F5FD016D862
:10220000B3F5966F5DD00AD8B3F5967F5CD0B3F581
:10221000167F5CD06FF085004EE00025DDE7B3F55A
:10222000166F57D0B3F5965FF4D1344B39E0B3F560
:10223000E14F52D007D8B3F5615F50D0B3F5964F58
:10224000E8D12F4B2DE047F61224A342E2D14FF400
:10225000000326E0B3F5613F44D011D8B3F5963FB3
:1022600042D008D84DF6C024A3423FD0B3F5614F09
:10227000D0D1244B15E0B3F5E13FCBD1224B10E098
:10228000B3F5612F35D007D8204CA34233D0B3F536
:10229000E12FBFD11E4B04E01E4CA342BAD14FF038
:1022A000805304691C482A43C0F82435C0F86C25C3
:1022B00003C984E80300002030BD184BF1E7184B38
:1022C000EFE74FF49E23ECE74FF4A033E9E74FF438
:1022D0001C33E6E74FF41D23E3E7124BE1E74FF42D
:1022E0006C13DEE7104BDCE7104BDAE74FF46503C5
:1022F000D7E70F4BD5E74FF08063D2E700B013006C
:1023000000A04E0000F0EB0000E0D70190D00300E9
:1023100000705F0740420F000020004000509D0009
:102320000050270000F0750000B0AF0300903A01A4
:1023300000D0BE0EF7B54368124C1E680769002135
:102340000546C4F8001501AA304602F01FFF002818
:1023500015DB019B32681979186802F034FF0028F8
:102360000DDB39462846FFF731FF40B90423C4F896
:102370000035C4F80801D4F808310123236003B004
:10238000F0BD00BF00200040F8B50E4603F021F973
:102390001A4D78BB64240127BFF35B8F55E8003FDB
:1023A000002B03D145E80072002AF7D1BFF35B8F01
:1023B00007D021200021013C01F098FF14F0FF0418
:1023C000EAD10F4C0023C4F81C31D4F81C3101238E
:1023D000A360C4F81C654FF47A76D4F81C3123B995
:1023E000012002F08FFF013EF7D10123E3600023BB
:1023F0002B60F8BD01232B60E3E700BFA409002098
:102400000020004010B501238340114ABFF35B8FC9
:10241000DC4352E8001F01EA040C42E800CEBEF1A2
:10242000000FF6D1BFF35B8F4FF4803202FA00F059
:1024300002F1804202F58052C2F80803BFF35F8FB9
:10244000BFF36F8F0B4214BF0120002010BD00BFEF
:10245000AC0900201949F8B5044622F07F45086808
:10246000C1E90023A5F50013101AB3F5400F22D2DD
:10247000134B1B681A0A1B065E19124B42F1000728
:10248000C3E90067012602F0A1F8A30003F180432D
:1024900003F58833D3F84025AA420BD11EB94FF477
:1024A0000002C3F84025084B4FF4803000FA04F4D2
:1024B000C3F84443F8BD0026E5E700BFE001002073
:1024C000B0090020C80100200010014019B3BFF37B
:1024D0005B8F0123104A834052E8001F194342E8F2
:1024E000001CBCF1000FF7D1BFF35B8F0B4A4FF418
:1024F00080338340C2F80433094BBFF35B8F1B6802
:10250000BFF35B8F23FA00F0C30742BF054B4FF4C4
:102510000032C3F800217047AC09002000100140D0
:10252000A809002000E100E00D4B1868010A000630
:10253000BFF35F8F0B4BD3F80435181841F100013E
:10254000B3F5801F0AD2084BD3E90023904271EB08
:10255000030303D210F1807041F10001704700BF06
:10256000B009002000100140C80100202DE9F04F03
:1025700085B0164698460546FFF744FF0090FFF7E2
:10258000D3FFB04271EB080378D2464B301A68EBA8
:102590000101984271F1000380F08180424B03EB0E
:1025A0000513D3E902ABD84508BF564551D04FEAD1
:1025B000850909F1804905F1500709F58839BF00FF
:1025C0004FF4803101FA05F3BFB226F07F4207F1E4
:1025D00080470193D9F84005344B07F588371446F6
:1025E000D3F80415401A20F07F4021F07F4C0128D9
:1025F000C9F840C507D1CDE90221132003F077F9CE
:10260000DDE90221294B01F1020CA4EB0C0020F0C2
:102610007F40B0F5000F88BF6446002038603868FE
:102620000198C3F8440324F07F40C9F84005D3F86B
:102630000405814206D0201A023820F07F40B0F510
:10264000000F19D8A41A24F07F4414EB060A48F1AD
:10265000000B15490E982B0101EB0512C2E902ABE4
:10266000C8500F9B5360002428460099FFF72EFFA7
:10267000204605B0BDE8F08F2046B1E701230C4AA3
:10268000BFF35B8FAB4052E8001F194342E80010D4
:102690000028F8D1BFF35B8FB246C346D9E76FF08D
:1026A0001504E1E701000001D00100200010014005
:1026B000A809002073B5194B194D00244FF0FF30C5
:1026C0004FF0FF31C5F80845C3E902014FF48033EC
:1026D000C5F80433134B02264FF400320121C5F82C
:1026E00004631120C3F880212246FEF7B7FD1120B4
:1026F000FEF796FD0C4A0123AB602B6013600B4B79
:102700000B4A0093019400232046FFF72FFF304629
:10271000FFF7E6F9204602B070BD00BFD0010020EF
:102720000010014000E100E0AC0900205524000049
:10273000FFFF7F002DE9F743354CD4F804339A07A7
:102740000BD5D4F8043143B1324A0023C4F8043124
:10275000D4F804311368013313604FF02003EFF312
:10276000118283F31288BFF36F8FD4F80433DB0335
:1027700012D5BFF35B8F284B53E8001F21F00100F7
:1027800043E80006002EF7D1BFF35B8F002936D156
:10279000D4F84031002B32D1002382F31188BFF3EB
:1027A0006F8F4BB3FFF7C0FE4FF02003EFF3118C98
:1027B00083F31288BFF36F8F184BD3E90267B042DF
:1027C00071EB07024FF0000220D34FF0FF384FF0BB
:1027D000FF39D3E90015C3E902891A604FF4803349
:1027E000C4F848338CF31188BFF36F8F21B1009583
:1027F00032463B460020884703B0BDE8F083002303
:10280000C4F84031D4F840310123C6E71146E9E766
:1028100000100140B0090020A8090020D0010020CC
:10282000431C13B521D0012821DDB0F5000F20DABB
:10283000441EFFF779FE104BD3E90013401AB0F5A0
:10284000000F28BF0024013002190C48824228BF23
:10285000024652184FF0000009490190009143F1DF
:102860000003FFF783FE02B010BD0448E0E7002438
:10287000DFE7024CDDE700BFE0010020FFFF7F0043
:102880005524000008B5FFF74FFE024B1B68C01A25
:1028900008BD00BFE001002000F01F014009012831
:1028A000044B4FF0010218BF4FF0A0438A40C3F819
:1028B0000C2570470003005030B500F48054002C04
:1028C00008BF15464FEA0323C0F381121CBF012540
:1028D000002100F01F0410F0200F43EA8202064896
:1028E00042EA010208BF4FF0A04004F5E07442EA5A
:1028F000450240F8242030BD0003005000F01F01C5
:1029000040090128044B4FF0010218BF4FF0A043CB
:102910008A40C3F808257047000300504FF08053E9
:10292000D3F83021082A06D1D3F83431052B02D848
:10293000024AD05C70470020704700BF975E0000DD
:10294000024AD2F80034002BFBD0704700E001406F
:1029500010B502F0CDFC40B14FF080430022C3F827
:102960000C21C3F81021C3F8382502F0C1FC00285F
:1029700046D04FF08052604BD2F80414C3F82015B3
:10298000D2F80814C3F82415D2F80C14C3F828158B
:10299000D2F81014C3F82C15D2F81414C3F830155B
:1029A000D2F81814C3F83415D2F81C14C3F8401523
:1029B000D2F82014C3F84415D2F82414C3F84815EB
:1029C000D2F82814C3F84C15D2F82C14C3F85015BB
:1029D000D2F83014C3F85415D2F83414C3F8601583
:1029E000D2F83814C3F86415D2F83C14C3F868154B
:1029F000D2F84014C3F86C15D2F84424C3F87025FB
:102A0000FFF78CFF18B13D4B3D4AC3F88C26FFF70A
:102A100085FF18B13B4BFB22C3F81825FFF77EFF5B
:102A200070B14FF080414FF08053D1F8E42ED3F8CD
:102A3000583222F00F0203F00F031343C1F8E43EB3
:102A4000FFF76CFF20B1304B4FF40072C3F8402603
:102A500002F04EFC48B14FF08043D3F80024D20777
:102A600044BF6FF00102C3F800244FF08053D3F845
:102A70003021082A0ED1D3F83431052B02D8234A4D
:102A8000D35C3BB14FF01023D3F808224FF08043C2
:102A9000C3F858254FF01023D3F80022002A03DB97
:102AA000D3F80432002B22DA194901234FF0102009
:102AB000C1F804351224FFF743FFC0F80042FFF7C6
:102AC0003FFFC0F80442FFF73BFF0023C1F8043585
:102AD000FFF736FFBFF34F8F0E490F4BCA6802F462
:102AE000E0621343CB60BFF34F8F00BFFDE70B4B9A
:102AF0000B4A1A6010BD00BF00C0004000500040EB
:102B00004881030000F0004000900240915E000008
:102B100000E0014000ED00E00400FA054400002060
:102B20000090D00370B501250268B2FA82F3C3F1B8
:102B30001F035E1CDCB214D0BFF35B8F05FA03F3F6
:102B400022EA030350E8006F964204D140E8003CBB
:102B5000BCF1000FF6D1BFF35B8FE5D102480C70DA
:102B600070BD0248FCE700BF0000AD0B0200AD0BDA
:102B70000368CB40DB0710B515D4012303FA01F13C
:102B80000368BFF35B8F41EA030250E8004F9C42A9
:102B900004D140E8002CBCF1000FF6D1BFF35B8FED
:102BA000EED1024810BD0248FCE700BF0000AD0BAB
:102BB0000400AD0BF7B5044618B1012829D003B0C5
:102BC000F0BD4FF080430222C3F80823C3F804018C
:102BD000D3F804210122DA6001239C428DF80730EA
:102BE00014BF00250DF1070542F210774FF0804623
:102BF000D4B1012CE3D125B1D6F80C3403F0010394
:102C00002B70D6F80C34DB0318D4134B00225A7106
:102C1000D5E74FF080430022C3F80803C3F8002132
:102C2000D3F800215860D7E725B1D6F8183403F05F
:102C300003032B60D6F81834DA03C0D52DB9012070
:102C400002F060FB013FD3D103E09DF80730012B78
:102C5000F5D0012CD9D0B2E7B4090020054B1A7980
:102C60002AB99A71012218609A8003487047034874
:102C7000704700BFB40900200000AD0B0C00AD0B85
:102C80004FF08043D3F80C24D3F80C14C80319D5A3
:102C9000D10717D5D3F81824D20313D50B498A7955
:102CA00002F0FF0082B9C3F80C01D3F80C210848E8
:102CB0000822C3F8042301228A710221C3F8341CBC
:102CC0001A6170470348704703487047B4090020F1
:102CD0000000AD0B0500AD0B0B00AD0B4FF08043BA
:102CE00010B5D3F800216AB10022C3F80021D3F84F
:102CF00000210122C3F80823184B587910B95A71E2
:102D00001B6898474FF08043D3F804215AB1002242
:102D1000C3F80421D3F804210222C3F808230F4B7F
:102D200001201B6898474FF08043D3F80C21A2B1D3
:102D3000D3F80423120710D50022C3F8342CC3F8AB
:102D40000C21D3F80C110821C3F80813034B9A7116
:102D5000BDE810401B680320184710BDB4090020CF
:102D6000036803F01F025B09012B0260024818BFD1
:102D70004FF0A040704700BF00030050034B0830E5
:102D800033F81000C0F34010704700BF4800002027
:102D900070B500F108030C4C34F81330DA05054621
:102DA0000E4607D5C3F3432304EBC30254F8333074
:102DB00052689847A3682BB1E26831462846BDE8BF
:102DC0007040184770BD00BF48000020124A08300C
:102DD00010B432F81030D9051BD5C3F3432123F4C6
:102DE000F85322F8103002F11004002034F8023BAE
:102DF00013F4807F03D0C3F34323994209D00130F9
:102E00003028F3D1002342F83130044810BCFFF7DA
:102E1000AFBE10BC704700BF48000020BC000020BF
:102E200038B50246FFF7AAFF094C02F1080540B188
:102E300034F8153007495B0B03F5A273002041F805
:102E400023001046FFF7C2FF002324F8153038BDD9
:102E500048000020006000402DE9FF41044617466D
:102E60001D4621B34E4E00F1080836F818309B0776
:102E700006D5FFF783FF18B14A4804B0BDE8F081DA
:102E80000023CDE900338DF80E308DF80F300DF1B1
:102E90000F020B4620460DF10E0102F07CFA36F8C7
:102EA000183023F0020343F0010326F8183097B1DD
:102EB0003B4B3E787A6804F1080033F810108F0716
:102EC0000CD5002AD8D133F8102022F01C0242EA97
:102ED000860223F81020CDBB3348CEE721F0200135
:102EE000C904C90C23F81010002AECD0032EC3D853
:102EF00017782EB92D4A07F5A27142F82160E2E752
:102F0000BA0002F1804202F5C04241EA4731D2F8EC
:102F100010C52CF0030CC2F810C5D2F810C52CF463
:102F20004F3C2CF4407CC2F810C5D2F810E54FEAB3
:102F3000042C0CF47C5C4EEA064E4CEA0E0C41F07C
:102F4000200123F81010C2F810C5BCE7D5E90067CE
:102F50002046FFF73BFF002EBED0114D2B689E424E
:102F600004D16B689F4201D100220AE010480DF1A4
:102F70000F01FFF7D7FD0C4B98427FF47EAF9DF811
:102F80000F2045F8326005EBC20308345F6035F866
:102F9000143043EA422343F4807325F814309BE74E
:102FA000480000200400AD0B0000AD0B00600040A5
:102FB000BC000020F0B5044685B0154619B3334E69
:102FC00000F1080736F81720930703D4FFF7D6FE61
:102FD000002858D112F01C0F02D04B78012B52D090
:102FE00001238DF80F300023CDE900134A1C8B1C00
:102FF00020460DF10F0102F0CEF936F8173043F0FC
:10300000030326F8173015B9214805B0F0BD1F4E4F
:1030100004F1080736F81700830734D595F800C087
:103020006146890020F0200001F18041C00401F5D3
:10303000C041C00C26F817000023C1F810356A788B
:10304000002AE1D0D1F81035AD7823F4991323F498
:10305000F853C1F81035D1F810E5230203F47C537E
:10306000120402F4403243EA0E0313432A0502F429
:10307000801240EA4C30134340F0200026F817003D
:10308000C1F81035C0E70348BFE700BF4800002083
:103090000000AD0B0400AD0B014BC3E9020170470A
:1030A0004800002008B50246FFF768FE38B1054B1E
:1030B0000548083233F812305B0B0B7008BD03482B
:1030C000FCE700BF480000200000AD0B0400AD0B82
:1030D00038B50F4C94F87850BDB96022294604F1F8
:1030E000100001F03DFF0620FEF79AF8094B0A4850
:1030F000C3F87C51D3F87C214FF00042C3F804237D
:10310000012384F87830636738BD0448FCE700BFCA
:1031100048000020006000400000AD0B0500AD0B32
:10312000034B93F87800003818BF0120704700BFA8
:103130004800002001460148FFF71ABDB8000020F2
:1031400001460148FFF7EEBCB800002037B5044641
:10315000FFF714FE04F108021E4B33F81230E8B1F9
:1031600013F002051AD15B0B9A0002F1804000F5C2
:10317000C24002F1804202F5C04205600068D2F808
:10318000100540F00100C2F8100529B1012202FA31
:1031900003F3114AC2F8043303B030BDC3F3820312
:1031A000042B12D0052B12D001A80194FFF7D8FDF3
:1031B000019BD0F81015D94001F0010102312046E1
:1031C00003B0BDE8304002F02DB90321F7E702213A
:1031D000F5E700BF480000200060004008B5024647
:1031E000FFF7CCFDC0B102F108010E4B33F81130EE
:1031F000990711D45B0B01229A409B000A4903F105
:10320000804303F5C043C1F80823D3F8102522F00A
:103210000302C3F8102508BDBDE808400021104690
:1032200002F000B948000020006000400E4B00F1A1
:10323000080213B533F81230DB07044611D5FFF747
:10324000CDFF2046FFF7ECFD01A80194FFF788FDB4
:10325000019B03F5E073022240F82320034802B0EB
:1032600010BD0348FBE700BF480000200000AD0B85
:103270000400AD0B2DE9F04F644B6548654900260D
:1032800087B0012234461D6835B1D0F80453154289
:103290001EBF1C601D68164304338B424FEA420276
:1032A000F1D1DFF86C81D8F87C31002B00F09180EF
:1032B0004FF0A043D3F820250492C3F82025D3F87B
:1032C00020280592C3F8202800270DF110097B0162
:1032D00000934FF0010A49E0009B4F4A94FAA4F48E
:1032E000B4FA84F41C4404F10803E00832F8133003
:1032F000039404F007020AFA02FC19F8002022EAFB
:103300000C0209F8002003A8C3F382059908FFF70F
:1033100027FD039A02F5E0724B0750F82220AB46D6
:10332000C2F3014229D520465946D5B2FFF730FDF8
:1033300003A80394FFF714FD039B03F5E07350F813
:103340002330C3F301439D4207D10021204602F000
:1033500069F82946204602F065F803A80394FFF7B0
:10336000FFFC039B0AFA03F3C0F8203559F8274005
:10337000002CB1D1CFB90127A9E7022A0CBF032144
:1033800002212046019202F04DF8032D04D0019A4B
:10339000022A06D1012DE0D159462046FFF7F8FC5C
:1033A000DBE7032AD9D1022DF5E7C8F87C41D8F82C
:1033B0007C311A494FF0A043D3F820250492C3F87A
:1033C0002025D1F820350593C1F8203513437FF42B
:1033D0007BAF012416B907B0BDE8F08F96FAA6F3CB
:1033E000B3FA83F304FA03F29B0003F1804303F57D
:1033F000C04326EA0206D3F81005D3F81015C0F32F
:103400000520C1F30141FFF7C3FCE3E70061004081
:103410000060004020610040480000200003005090
:1034200010B5144C144A1549032323616361144BEE
:10343000A261E3614FF4806323620023A3626362AD
:10344000E36222660F4A6266E01D1022A2662367CD
:10345000E366636701F05FFDBFF35F8F0A492046B3
:1034600001F059FDBFF35F8F2023A371BFF35F8F7E
:1034700010BD00BFBC0900209D5E0000A65E0000DC
:10348000910C0020810C0020AA5E000070B5164B44
:10349000182400FB04451D4404FB00331646DC6A77
:1034A000012C0ED0022C18D0E4B9284601F0C9FF37
:1034B000864204D83246284601F0CCFF34462046E6
:1034C00070BD284601F0BDFF8642344628BF044641
:1034D0002246284601F0BEFFF1E72846BDE87040CD
:1034E00001F0D6BF0024EAE7BC0900200E4B70B5FE
:1034F00053F82040013053F82060A64200D870BD38
:10350000D4E900352846984765B1EB6830B100280A
:10351000B8BF4042FF28A8BFFF2018705A7842F079
:1035200001025A700834E8E7FC5C000008B50A4B59
:10353000012202201A70FFF7D9FF01F079F9032068
:10354000FFF7D4FF00F062F9FCF748FF034A137B52
:1035500023F00103137308BD9110002068020020BE
:1035600008B50348034A0021121A01F0EAFF08BD1A
:10357000C80100209410002070B5002386B00122FD
:10358000CDE90423114E124D01930F22CDE90232F1
:103590001049182303FB005506EBC0164FF4A07228
:1035A000044602FB00110C4B0095304600F0D2F8A7
:1035B000737B0A482C75013423F0040300EBC42408
:1035C0007373EE606C6006B070BD00BFE801002050
:1035D000640A002098140020C5380000D815002087
:1035E00080B52D4BA6B083F308882C4D2C4E6B690B
:1035F0002C4F43F4007300246B61E02385F82230E4
:10360000EC772C766C76AC7685F820406B6A43F4C8
:10361000E0236B6285F82340FDF7DCFFFDF7E2FD58
:103620004FF0FF33AB62EB62FEF7E4F8FEF774F89D
:1036300040F20113ADF8243006ABB360CDE91F446E
:10364000229401F058FF2046FFF750FF0120164D4D
:10365000FFF74CFF00F0B6FD144BF5610593012315
:1036600013490094CDE903434FF480623B46CDE912
:103670000144284600F06EF86A7B064622F00402F8
:1036800028466A7302F047F82046FFF775FF3A466E
:1036900031462846FDF784FED81D002000ED00E0ED
:1036A000640A00202D35000068020020B15E000091
:1036B0009810002070B50E4B0E4CA34201D3002091
:1036C00070BDD3E9030141EA000212F003020BD1FD
:1036D0009D685A61AA4201D11C33EEE75E690E6013
:1036E000013259610144F5E76FF01500E8E700BFCA
:1036F000780100207801002037B50C464FF02005F6
:10370000EFF3118185F31288BFF36F8F45695DB1C7
:1037100025602B684361836901338361002081F355
:103720001188BFF36F8F11E052EA030C03D12560BB
:103730006FF00B00F3E7CDE900230246083000F0FC
:1037400097FC18B9024B9B685B69236003B030BDDE
:10375000640A00202DE9FF410E9E0673042646737D
:103760000D9E867300F15805D61DC0E916550C9ABA
:10377000002526F00706C0E90655C0E91916856040
:10378000C573C56602920B9A019201EB06080A9A6C
:10379000009242460446FDF7E7FD054B65659B68D0
:1037A00003B11B6F2367404604B0BDE8F08100BF42
:1037B000640A0020F0B587B000270597109F049792
:1037C0000F9F03970E9F0297DDE912650D9F0197EA
:1037D0000C9F00970446FFF7BDFFB5F1FF3F08BF00
:1037E000B6F1FF3F05D055EA060305D1204600F0AB
:1037F000E3FB204607B0F0BD034932462B4604F1F7
:10380000180000F069FEF4E7375700002DE9F04397
:10381000294C2A4D87B02646AE4204F130040FD31E
:1038200000F0E4FA244CDFF898904FF4004640F2A0
:10383000E737AC4220D307B0BDE8F04300F0A6BCA8
:1038400054F8043C059354F8103C049354F8143C89
:10385000039354F8183C029354F81C3C019354F819
:10386000203C009354E90C0154E90A23FFF772FF4E
:1038700054F8303C5E65CEE7636A5A1C0DD023EAEB
:10388000E37300213846C3FB060151EAC333D4F881
:10389000008004D1404600F08FFB3034C9E74FF47C
:1038A0007A720023FCF72CFC02460B4608F1180044
:1038B000494600F011FEF0E74001002040010020E1
:1038C0003757000008B50B4C0B4D4FF02002EFF3BB
:1038D000118382F31288BFF36F8F01F0D8FF2B782A
:1038E000A06113B9FDF784FCEFE7FDF7E9FA0028C2
:1038F000EBD1F7E7640A0020911000202DE9F34195
:10390000044617461E464FF02003EFF3118883F359
:103910001288BFF36F8FC368324A6BB180689168B9
:10392000884219D057EA060318D188F31188BFF3EB
:103930006F8F6FF00F000CE0916891F90E1021610C
:103940000133E3609368A36088F31188BFF36F8F3E
:10395000002002B0BDE8F0812169F0E791F90E1076
:1039600090F90E309942A8BF19466FF07E0291423D
:10397000B8BF11468B422EDD01F03DFE0546CDE974
:10398000007619482246414600F072FB0028E0D03C
:103990004FF02003EFF3118683F31288BFF36F8F8C
:1039A000236821699C420AD04BB193F90E309942A9
:1039B000A8BF19466FF07E039942B8BF1946A068A8
:1039C00001F019FE00B945B10748314600F0FCF995
:1039D0006FF00A00BDE70025D1E786F31188BFF339
:1039E0006F8FF5E7640A002092100020836870B59D
:1039F00004466BB3194A926893422CD1C368012BD9
:103A000003D9013BC360002070BD4FF02003EFF3EA
:103A1000118583F31288BFF36F8F0169806801F00D
:103A2000EAFD204601F0E8FE0026A06050B190F9C2
:103A30000E202261866701F06EFE0948294600F0DB
:103A4000C3F9E0E7E06085F31188BFF36F8FDAE731
:103A50006FF01500D8E74FF0FF30D5E7640A00207B
:103A60009210002038B504464FF02003EFF3118583
:103A700083F31288BFF36F8F01F0BEFE48B10022BE
:103A8000826701F048FE29460548BDE8384000F04D
:103A90009BB9D4E902329A4218BF0133A360F2E71E
:103AA0009210002013B54FF02004EFF3118184F33E
:103AB0001288BFF36F8F846844B1013C846081F346
:103AC0001188BFF36F8F002002B010BD52EA0304CB
:103AD00006D181F31188BFF36F8F6FF00F00F3E70A
:103AE000CDE900230246024800F0C2FAECE700BF2D
:103AF000921000202DE9F04F474E85B004464FF05C
:103B0000FF384FF0FF394FF02003EFF3118783F3B5
:103B10001288BFF36F8FD4F880508DB9022104F161
:103B2000980001F083FD002835D10023CDE90089FC
:103B3000029304F188023946384800F057FCE2E766
:103B4000D4F884202B68C4F88030954201D1C4F8A1
:103B50008430D4F8983043F00203C4F89830EB680E
:103B600023F0040343F00103EB606B6887F31188D3
:103B7000BFF36F8F284698474FF02003EFF3118B68
:103B800083F31288BFF36F8FEB68990723F001026C
:103B90000BD4EA600EE004F19005002201212846D2
:103BA00001F042FE0028F8D1BFE7306823F003039C
:103BB000EB6070B9D4F8983023F00203C4F8983061
:103BC0008BF31188BFF36F8FD8059CD400F006FBF0
:103BD00099E70027D0F800A03B464268954201468D
:103BE0000CD1016897B972683160824200D171606E
:103BF00040F8083BFFF736FF39460023BAF1000FC3
:103C0000D8D050460F46DAF800A0E6E7726839606F
:103C1000904208BF7760EBE78C0A002092100020EA
:103C2000F8B5C3689A0704460E46C3F340051FD48F
:103C30005F071FD40A680AB982680A60D80744BFC0
:103C4000A368336037684CBF022501257FB31B4B47
:103C50009B68BB4211D101F0BCFC80F00100C0B2F6
:103C6000D7F89830D907C3F3800223D53AB140B9C9
:103C70006FF00F050023336013E00020F0E71B070F
:103C8000F6D400232360D7F8843063B9C7E9204411
:103C9000384601F0D6FCE36843F00403E360336880
:103CA000A3602846F8BD1C60C7F88440F0E76FF0B9
:103CB0001505DFE76FF01205DCE700BF640A00209E
:103CC0000146014801F0D8BCF0020020F0B589B0EF
:103CD00004460020C4E920000E9D04F18800C4E9D8
:103CE000220004F19000C4E924001DB328790028C3
:103CF00040F2011008BF0120C4F8980000204FF0E6
:103D0000FF364FF0FF37CDE90330CDE90100CDE9B3
:103D10000667094B00942046FFF74CFD25B1296842
:103D200011B1204601F05BFC204609B0BDE8F0402F
:103D300001F058BC0120DFE7F53A000038B5074D27
:103D40002C6854B1FEF79EFD054B04441C612868A5
:103D50000021BDE8384001F0AABD38BD9C0A002012
:103D6000640A0020F8B504460D464FF02003EFF337
:103D7000118783F31288BFF36F8F104E00214FF429
:103D8000004C40F2E730316100234FF47A72E4FBDB
:103D90000C01FCF7B5F9002C094B0ADC1860094B43
:103DA000B0681D60FFF7CAFF87F31188BFF36F8FFC
:103DB000F8BD0228B8BF0220F0E700BF640A002067
:103DC0009C0A0020980A002049B9EFF3058030B919
:103DD000054BDA699B689A4201D0FDF777BA81F307
:103DE0001188BFF36F8F7047640A00204FF02003E3
:103DF000EFF3118183F31288BFF36F8F044B9A683E
:103E0000D37B013BD37381F31188BFF36F8F70476E
:103E1000640A002038B502460C480D4D01F075FCCF
:103E2000044600B9EC68AB684AB95A7BD20606D1A1
:103E3000A26922B9DA897F2A01D9EB6138BD9C4297
:103E400002D02046FFF77AFFEC61F7E7840A0020F2
:103E5000640A002070B590F90D20437B002A0146CA
:103E600004DA03F07F03437301F017FC4B7B154A20
:103E700063F07F034B73D2E9083402F12005AB42B3
:103E80001BD0D3B191F90E6093F90E0086420FD08A
:103E9000801B00280CDD5868C1E9003001605960C2
:103EA0009068431A5842BDE870405841FFF7B2BFCE
:103EB000A34202D01B68002BE6D1C1E90054216067
:103EC0005162EDE7640A002038B54FF02003EFF3AC
:103ED000118583F31288BFF36F8F174B174A9C68C5
:103EE00011688C4207D12046FFF728FF85F311881F
:103EF000BFF36F8F38BD00211160114A1268C2B143
:103F0000E2897F2A15D8627BD20612D10D4A94F934
:103F10000E10126891420CDB0B4A944209D01A69C8
:103F2000824203DC2046FFF795FFDCE7121A1A6194
:103F3000DCE70022FBE700BF640A0020940A0020AF
:103F40009C0A0020980A0020E801002070B490F933
:103F50000D20437B002A2ADBDA0628D1826932BB96
:103F6000144A63F07F034373D2E9083402F1200559
:103F7000AB4217D0B3B190F90E6093F90E108E4298
:103F80000BD0891B002908DD5A68C0E90032106097
:103F9000586070BC0020FFF73DBFA34202D01B68F1
:103FA000002BEAD1C0E9005420605062F1E770BCF8
:103FB000704700BF640A002010B54FF02002EFF3F5
:103FC000118482F31288BFF36F8F427B510704D4B0
:103FD00084F31188BFF36F8F10BD22F00402427387
:103FE000FFF7B4FF21460248BDE81040FFF7ECBEE2
:103FF0009210002008B590F90D20437B002A01465D
:1040000004DA03F07F03437301F047FB044B986825
:10401000431A58425841BDE80840FFF7FBBE00BFB5
:10402000640A00202DE9F041064615461C464FF073
:104030002003EFF3118783F31288BFF36F8F01F032
:104040009CFB87F31188BFF36F8FB4F1FF3F08BF6C
:10405000B5F1FF3F08D02A46234606F11800034970
:10406000BDE8F04100F038BABDE8F08137570000F4
:1040700010B5074B9868074B0C4618601146DDE9F0
:104080000223FFF7CFFF2046BDE81040FDF71EB921
:10409000640A0020940A0020F8B504464FF020037B
:1040A000EFF3118683F31288BFF36F8F437BDA0639
:1040B00049B233D182698ABB03F07F03437301F0B5
:1040C000ECFA437B174A817363F07F034373104616
:1040D00050F8203F83421BD0D3B1576A93F90E505A
:1040E000A94210D06D1A002D0DDD5A68C4E90032C6
:1040F00014605C600120FFF78DFE012086F31188BB
:10410000BFF36F8FF8BDBB4202D01B68002BE5D117
:10411000536AC4E900031C605462EBE7A1730020FA
:10412000ECE700BF640A002070B50446183001F0C7
:1041300098FB4FF02003EFF3118683F31288BFF34F
:104140006F8F94F90D20637B002A05DA03F07F035B
:104150006373204601F0A1FA0B4D637BA86843F01E
:1041600010036373031B58425841FFF753FE86F355
:104170001188BFF36F8FAB68A34203D1BDE87040D5
:1041800001F0B9BA70BD00BF640A002010B54FF04D
:104190002003EFF3118483F31288BFF36F8F084B72
:1041A0009A68D37B0133D3730020FFF733FE84F387
:1041B0001188BFF36F8FBDE8104001F09CBA00BFBB
:1041C000640A0020044B002103F12002C3E9082205
:1041D0000846FFF7C7BD00BF640A0020F8B54FF0DE
:1041E0002003EFF3118583F31288BFF36F8F1A4911
:1041F0008868437B03F07F03437301F04EFA8B68BA
:104200005A7B084662F07F025A7350F8202F824290
:104210001CD0DAB14F6A93F90E6092F90E40A642B3
:104220000FD0A41B002C0CDD5168C3E900210B60EA
:1042300053600120FFF7EEFD2846BDE8F840FDF78A
:1042400045B8BA4202D01268002AE6D14A6AC3E9E8
:10425000000213604B62ECE7640A002050EA01039D
:104260002DE9F04105460E4603D1FFF7B7FF0020C8
:1042700033E06FF00104241A4FF0FF3363EB0103C6
:10428000012C73F1000302DA01F02BFB44194FF00B
:104290002003EFF3118883F31288BFF36F8F104F61
:1042A000104BB8681860FFF7A5FEB8680E492A469B
:1042B0003346183000F010F9BA68537B43F010030E
:1042C00053734046FDF702F801F00BFB201A63EB35
:1042D0000303012873F10003C9DBBDE8F08100BFCF
:1042E000640A0020940A002037570000B1F1FF3F14
:1042F00008BFB0F1FF3F08B506D1084B9868FFF73B
:1043000013FF4FF0FF3008BDFFF7A8FF4FF47A739B
:1043100080FB0303C00B40EA4340F4E7640A00203B
:10432000014B9868704700BF640A00202DE9F041F6
:1043300004464FF02003EFF3118683F31288BFF396
:104340006F8F037BD9070BD586F31188BFF36F8F6F
:10435000404080F311884FF0040002DFBDE8F08197
:10436000437B1A0704D586F31188BFF36F8FF5E7F7
:1043700023F0200242F00801D20920D14173A36842
:1043800013B1204601F091F904F1180001F069FA27
:1043900004F158074FF00008A56DBD4200D0B5B933
:1043A0000120FFF737FD104B9B68A342DBD1EFF3F1
:1043B0000583002BD7D13046FCF788FFD3E703F005
:1043C0005F0343F00803437301F067F9D7E728461A
:1043D00001F06BF905F1180001F043FAC5F8788097
:1043E0002846FFF7B3FDD7E7640A0020D3B5DDE91F
:1043F0000667089CCDE90067FFF73AFE1CB1034B46
:104400009B685B69236002B0D0BD00BF640A0020D6
:1044100008B50648064A0749121A01F094F8BDE8A3
:104420000840054A0549064801F08DB80000002003
:10443000C8010020F85E000000000000F85E0000E7
:1044400000000020034B1B680BB9FEF71BBA0020CD
:10445000704700BFA00A0020104B10B51C689C429A
:1044600008BF0024FFF7EEFFA4B1D4E904321B1A01
:1044700062EBE070B3F1004F70F100020ADA00283D
:10448000ACBF18460020064B1B6913B19842A8BF69
:10449000184610BD6FF00040F5E700BFC4000020D3
:1044A000640A002030B5036868B10A4A5268904235
:1044B00009D043B1D3E90421D0E90445121941EBF5
:1044C0000501C3E90421426813605A600023C0E972
:1044D000003330BDC4000020B3F1FF3F08BFB2F18C
:1044E000FF3FF8B504461F46154667D081604FF080
:1044F0002003EFF3118683F31288BFF36F8F6FF001
:104500000102531B4FF0FF3C6CEB0703002B1BDB3E
:104510002B4BD3E90013521A6CEB0303551B63EBCF
:104520000703012D73F10002BCBF01250023C0E980
:1045300004532448D0E9003C834218D1C4E9000C5C
:10454000CCF80040446026E0FFF77CFF013547F1DE
:1045500000072D1847EBE077C4E90457E9E7521A42
:1045600065EB07059C45C4E90425E7D01B68002BD3
:10457000E4D0D3E90417D4E904258A4275EB070E89
:10458000EDDA8A1A67EB0505C3E904255A68C4E920
:10459000003214605C60036883420BD09C4209D1F6
:1045A000FFF75AFF18B1084B1B69834202D0002164
:1045B000FEF736F986F31188BFF36F8FF8BD00BFA1
:1045C000E8020020C4000020640A00202DE9F8431E
:1045D0000446FFF779FC4FF02003EFF3118583F3D6
:1045E0001288BFF36F8F244FDFF89080244E3C6019
:1045F000D8F800003B684045D6E9002E4FEAE37149
:104600000BD050B1D0E9044CA34271EB0C0916DA7F
:10461000E41A6CEB010CC0E9044C9B184EEB010151
:104620000024C6E900313C60FFF716FF2146FEF783
:10463000F7F885F31188BFF36F8FBDE8F883A218F0
:104640004EEBE471C6E9002100230022C0E90423F7
:10465000FFF728FF85F31188BFF36F8F83689847B2
:104660004FF02003EFF3118583F31288BFF36F8FB0
:104670003B681B1B3B60BBE7A00A0020C400002076
:10468000E802002010B54FF02003EFF3118483F30C
:104690001288BFF36F8FFFF7D5FE064B0146D3E9B3
:1046A0000003081843EBE17184F31188BFF36F8FA7
:1046B00010BD00BFE802002070B504464FF0200393
:1046C000EFF3118583F31288BFF36F8FD0E90A32BD
:1046D000013342F10002022B72F1000322D301F0F8
:1046E00004F9D4E90A32013041F10001C01841EB6C
:1046F0000201012871F1000332DB01F0F6F801300C
:1047000041F10003D4E90A2180186FF0010243EB64
:104710000103121A4FF0FF3161EB03031A492046DF
:10472000FFF7DAFE236B01332363236A73B185F34A
:104730001188BFF36F8F236A204698474FF02003FC
:10474000EFF3118583F31288BFF36F8F54F8186F5E
:10475000A64200D04EB985F31188BFF36F8F70BDAC
:104760006FF001024FF0FF33D8E7304600F0A7FFAB
:104770000023B36785F31188BFF36F8F3046BDE820
:10478000704000F0C8BF00BFB94600002DE9F047F7
:104790001146B3F1FF3F08BFB1F1FF3F06461C468B
:1047A000DDE90820894698463ED0B0F1FF3F08BFBA
:1047B000B2F1FF3F1546074614D050EA020311D06C
:1047C0006FF001039B1A4FF0FF3363EB0003002BE4
:1047D00008DA022A70F10003BCBF02250027013D60
:1047E00047F1FF376FF001035B1A4FF0FF3363EBC4
:1047F0000403002B09DA012974F10003BCBF012175
:10480000002411F1FF3944F1FF38304601F029F856
:1048100000233363C6E90A574A46434630460349F4
:10482000BDE8F047FFF758BEBDE8F087B946000085
:10483000024A0349034800F015BA00BFEB5E0000CE
:10484000B65E0000C55E00001FB5094B029302ABC7
:1048500000240093074908488DF80C404FF0FF33BF
:104860004FF48062FFF732FA204604B010BD00BF5B
:10487000EC5E0000D81D0020F002002010B50A4CAC
:1048800023681BB101232360002010BD00F0CEF887
:104890000028F7D00138062803D8044B53F820002D
:1048A00010BD034810BD00BFA40A0020145D000025
:1048B000FE8FFFFFBFF34F8F0549064BCA6802F416
:1048C000E0621343CB60BFF34F8F00BFFDE700BF33
:1048D00000ED00E00400FA0510B4094B09490A4C48
:1048E0004FF0FE32C3F800244968C3F80424C3F82B
:1048F0000824C3F80C240023C4F8003510BC084772
:1049000000B00250CC00002000A00250D0E90012FC
:10491000014BC3E900127047CC00002010B50446DB
:1049200030B16368DB0602D500232360636010BDED
:10493000024B03485B689847F3E700BFCC000020B8
:10494000305D0000B0B1436893B1DB060ED50123A2
:1049500050E8002F194640E8001C9CF0000FF7D1EA
:10496000012AF5D0BFF35F8F0020704703487047DE
:10497000034870476FF4E040704700BFE98FFFFFC6
:10498000EA8FFFFF68B143683BB1DB0607D5BFF391
:104990005F8F002303601846704703487047034841
:1049A00070476FF4E0407047EA8FFFFFE98FFFFF29
:1049B00010B5044620B1002211232260636010BDAF
:1049C0000148FFF789FFF6E7585D000070B5D0E9B0
:1049D0000023134C134D6360D0E90230C4E9023068
:1049E0002260114B086818604868586088689860B1
:1049F000D1E90301D8601961D5F81831DB060DD56E
:104A00000023C5E94533C5E96E3305F58A70904743
:104A1000236805F5DC70BDE87040184770BD00BF25
:104A2000DC000020BC0A0020EC00002038B500F0BB
:104A30002FF820B1032400F063F8204638BD00F0C1
:104A400031F898B900F0ACF898B90F4DD5F828397D
:104A50001B0EF02B08D1D5F8242A0C4B9A420AD011
:104A6000072400F017F8E6E70624FAE704242046B6
:104A700038BD0024F5E7012000F092F80446002834
:104A8000F7D1C5F80C0AD8E700B002500000E020CA
:104A90000020704700207047014BC3F8040A70479C
:104AA00000B0025010B5114800F048F800B110BD38
:104AB0000F4800F043F80028F9D10E4C204600F0D2
:104AC0003DF80028F3D10C4B0C481C6000F036F880
:104AD00001460028EBD100F02DF8044608B120462D
:104AE00010BD00F03FF82046FAE700BF2401002087
:104AF0001801002020010020280100201C010020B6
:104B000008B5084800F024F8074800F021F80748E5
:104B100000F01EF8064800F01BF8BDE8084000F061
:104B20000BB800BF24010020180100202001002044
:104B30001C01002000207047704700BF08B5034BE0
:104B400002681B6810689847002008BDDC00002040
:104B500008B5034B02685B6810689847002008BDE1
:104B6000DC00002070B5094C094D2069AB689847FE
:104B700018B1084B08485B689847084AEB682069F9
:104B800000211160BDE87040184700BFEC00002014
:104B9000DC000020CC0000207C5D0000B80A002072
:104BA000F8B51A4D1A4E0446B26828699047E8B91C
:104BB000184F3B684CB1A3B1012B19D0013B3B60AE
:104BC0002869F36898470020F8BD43B9124A0121CB
:104BD000C2F800151149D1F81029002AFBD1013380
:104BE0003B60F368286998470020F8BD0C48F8BD81
:104BF0000A4AD2F81039002BFBD1074A6FF07E40E9
:104C0000C2F80035FFF748FF3B68D7E7EC0000200B
:104C1000DC000020B80A002000A0025000B00250C2
:104C2000E98FFFFF034658B1426802F00302012AF0
:104C300003D0032A04D1026812B1002098607047A3
:104C40006FF0150070474268816002F00302032A8A
:104C50004FF0000203460CBF006810465A607047D0
:104C6000002070470FB407B504A951F8040B019157
:104C7000FBF7F0FB03B05DF804EB04B07047038B67
:104C800013F0070305D10368002B0CBF002003209D
:104C90007047022B05D1438B002B14BF002004204A
:104CA0007047012B05D10368002B0CBF00200520A5
:104CB0007047002070472DE9F0410D460746194620
:104CC000281D90461E46FFF7BEFF044638B1334606
:104CD000424629463846A446BDE8F0416047BDE853
:104CE000F08110B44FF02004EFF3118284F31288A6
:104CF000BFF36F8F416110BC0121FBF7B9BB10B549
:104D00000C4640B139B1081DFFF78CFF28B9A368E4
:104D100033F0030301D06FF0150010BD38B50C4619
:104D2000054658B151B10B6843B14B6833B11C22F1
:104D3000002100F015F92C61002038BD6FF015003E
:104D4000FBE770B504460E46FFF7D9FF051E31DBC1
:104D50004FF02003EFF3118183F31288BFF36F8FBD
:104D6000638B208B4FF6FF75AB4200F007022ED00D
:104D7000022A0ED1013363831546012381F3118882
:104D8000BFF36F8FB3B1002331462046FFF793FF87
:104D900010E0830701D0062A0ED100233360636838
:104DA00093B9C4E90066154662B90A462046022155
:104DB000FBF75EFB284670BD052A0CBF6FF085052A
:104DC0006FF004050023D9E71E606660EBE76FF023
:104DD0000A05F7E710B54FF02003EFF3118283F3D4
:104DE0001288BFF36F8F048B04F00704022C0AD0E3
:104DF000012C0CBF6FF004006FF0850082F3118866
:104E0000BFF36F8F08E0438B013B9BB2438323B911
:104E10002146FBF72DFB204610BD2046EEE7044659
:104E200008B5084611461A46A047FFF779FAFCF77D
:104E30005DFC2DE9F84F9A46D3786F2B80460F46DC
:104E40001546A3F1410B29D024D8582B14BF0A26AC
:104E50001026DDF828903246002340463946FBF7FD
:104E60004FF9092AD4B21ED83034B045E4B277F1F4
:104E7000000309F8014D01D3D14511D82B789B06C9
:104E800005D5082E15D1AB7843F00803AB70484622
:104E9000BDE8F88F03F0F703702BD7E70826D8E7B3
:104EA00080460F46D7E7BBF1190F94BF373457340C
:104EB000DBE7102EEBD1AB7843F01003E6E72DE9EA
:104EC000F0410746884615461E461446B442A4EBF8
:104ED000050002D33EB923782BB114F8010B4146EB
:104EE000B8470028F2DABDE8F081704708B5002025
:104EF000FBF764FF00F00ABB0146006800F006BB48
:104F000000210120FFF7F6BF08B5FCF7BFF9BDE8A7
:104F10000840FCF777BA0139034611F8012F0AB9A6
:104F20001A70704703F8012BF7E7034600201A5C5C
:104F300002B970470130FAE7034600201A5C0AB153
:104F4000884200D170470130F8E710B5431E0A448B
:104F5000914200D110BD11F8014B03F8014FF7E762
:104F6000C9B202440346934200D1704703F8011BC3
:104F7000F9E74FF0FF307047062808D14FF0804323
:104F80000122C3F80025BFF34F8F20BFFDE7704714
:104F9000002383F31188BFF36F8F70470369C9B291
:104FA0000C2201FB0233186C00F0070070474FF031
:104FB0002003EFF3118283F31288BFF36F8F03682E
:104FC00003F0C00343F00203036082F31188BFF3D0
:104FD0006F8F7047034670B50069C9B24FF0200467
:104FE000EFF3118684F31288BFF36F8F0C2505FB56
:104FF0000104246C14F0C00401D0A24210D105FBBE
:10500000010001220264002086F31188BFF36F8F34
:1050100028B95B6803EBC1014B689847002070BD5D
:105020004FF0FF30F0E78022FFF7D4BFF8B5069FBE
:1050300004690546C9B24FF02000EFF3118C80F3EC
:105040001288BFF36F8F0C2606FB0146306C00F010
:10505000070EBEF1010F11D1376400268CF31188C1
:10506000BFF36F8F46B90C2000FB0144C4E90E2347
:105070006B6853F8313098473046F8BD00F0C000F7
:10508000874214BF4FF0FF366FF07706E6E713B59F
:1050900080240094FFF7CAFF02B010BD006910B46D
:1050A000CBB21C2403FB0400002110BC10470020DD
:1050B00000F037B91046FEF7D5BC08B5FCF72CFE5A
:1050C000BDE80840002000F064B9FCF763BD436808
:1050D0005B68D3F810350B600020704743685B684D
:1050E00002EA010021EA0201C3F80805C3F80C1521
:1050F0000020704743685B680020C3F808157047BC
:1051000043685B680020C3F80C15704743685A6811
:10511000D2F8043521EA03000B40C2F80805C2F8B2
:105120000C35002070470369586830B558B1002429
:10513000814212D108689D6854B98D42586000D1EF
:105140009860002008606AB9002030BD2846EFE76B
:105150008D42206008BF9C60F3E705680446002D7F
:10516000F4D13AB198685A680A6059600028EBD1C6
:105170009960EAE76FF01500E7E702690B4692E8ED
:10518000030083E8030000207047704730B5436890
:105190001360037A03F10053013BDB004568146898
:1051A0001D44AC4202D96FF0010030BD65798D42DB
:1051B00002D008341460F1E70020F6E709B9FDF7E2
:1051C0006BBBFDF79BBB2DE9F0411646054600EB96
:1051D0008107AF4202D10020BDE8F0812C68230C8A
:1051E000C4F30328192B71D8DFE803F00D19212629
:1051F0002B3C2670707070465070707070707070BC
:1052000070705561666B04F03F04C6F80C45286861
:1052100000F03F00FDF772FB4346012205E004F079
:105220003F04C6F8144543460022114615E004F039
:105230003F04C6F80845EAE704F03F04C6F8104505
:10524000F1E704F03F04C6F80845286800F03F0085
:10525000FDF722FB4346002201212868FDF72CFBC5
:105260000435B6E704F03F04C6F80C45286800F0A2
:105270003F00FDF711FBCFE704F03F04C6F80845F7
:10528000B8F1000F14BF43460623CDE704F03F04F6
:10529000C6F80C45F4E704F03F04C6F860452868FA
:1052A000C0F3403100F03F00FFF788FFB4E704F09F
:1052B0003F04C6F86445F2E704F03F04C6F86845C9
:1052C000EDE704F03F04C6F86C45E8E76FF08500B1
:1052D00082E708B50020FCF7DBFAFFF7CFBA08B584
:1052E000FBF7B6FEFBF768FFBDE80840FFF7C6BA5C
:1052F0004FF08053D3F83001A0F1080358425841D1
:105300007047004700F0F3BA08B50020FBF798FF9C
:1053100008B9FBF785FF4FF080430022C3F818253A
:1053200008BD08B510B1012828D008BD4FF0804352
:10533000D3F81824D3F81814C9030BD4D3F81424C1
:10534000D0070CD5D3F81C24920705D10222C3F84C
:105350000423EAE7910702D00020FDF72BFC4FF071
:1053600080430022C3F81825C3F80421D3F8042190
:105370000222C3F8042301229A60D6E74FF080434B
:105380000022C3F80021D3F80021C3F804031860F9
:10539000CBE7FDF70FBCF7B5019001A8DDE90846A2
:1053A00017461D46FDF7DCFC019B002F00EB830038
:1053B00014BF02230023002918BF43F00103002D6E
:1053C00014BF4FF00C0C4FF0000C002C43EA0C0300
:1053D00014BF4FF4E06C4FF0000C002E43EA0C03B6
:1053E000D0F8002714BF4FF4403C4FF0000C43EAC4
:1053F0000C0322EA030301B109780FB13F787F0063
:1054000019430DB12D78AD0039430CB12278140247
:105410000D430EB1367836042C433443C0F80047B0
:1054200003B0F0BD1FB50DF10F03019300238DF8FC
:105430000F1000931A461946FFF7ADFF05B05DF84F
:1054400004FB0369C26893429CBF80681B18013B40
:10545000981A70472DE9F843D0E902940546A9EB64
:1054600004084068904520440F46144406D9FFF7CD
:105470006CFDBFF35F8FEC60BDE8F8834246A4EBA0
:105480000904FFF762FD6868224607EB0801EEE7B2
:105490002DE9F843C5680646894617464FF00008CF
:1054A0003469B3687068A54228BFE418013C621BE8
:1054B0005C1BBC4228BF3C46944228BF1446494668
:1054C00022462844FFF741FDB3682544A044A14487
:1054D0003F1BAB4208BF0025BFF35F8FF560002F75
:1054E000DED14046BDE8F883FDF79ABF08B5FFF767
:1054F000FBFF002008BD704738B1C3681888C0F3AF
:105500000800A0F58073584258417047F8B5054629
:105510000E464FF02003EFF3118783F31288BFF399
:105520006F8FFEF7FDFE314604462846FFF7D1FE99
:1055300087F31188BFF36F8F2046BDE8F840FCF772
:10554000D5B8FFF70DBDFFF700BD30B5002484616D
:1055500041EA020414F00304C0E9023201610CD1F3
:105560004461A34203D1C0E90000002030BD456979
:105570000D60013441611144F3E76FF01500F5E768
:10558000F8B504460D464FF02003EFF3118683F380
:105590001288BFF36F8F476977B900F02DF958B1C2
:1055A0002A684261876700F0B6F8314604F10800C6
:1055B000BDE8F840FEF708BC2B6862691A602B68EA
:1055C0006361A369013BA36186F31188BFF36F8F09
:1055D000F8BDEFF30580003818BF012070476FF069
:1055E00057007047FEF7E8BC08B5FBF72BFCBDE899
:1055F0000840FFF7CABD90F90E308B4201D0FEF78C
:105600004BBD0020704703460020C3E90200C3E9F8
:10561000003370473AB18A4205D3C0E90212C0E9AB
:105620000000002070476FF01500704702680123EA
:105630008B4022EA0303036022FA01F000F001002C
:10564000704720B100221146883000F0EDB8704755
:1056500013B5019008464FF02003EFF3118483F354
:105660001288BFF36F8F01A9FEF7DAFA84F311886D
:10567000BFF36F8F02B010BD10B5FFF7E9FF041E36
:1056800009DD4FF02003EFF3118083F31288BFF39D
:105690006F8F00F024F8204610BDD0E9003213606F
:1056A0005A600023C0E90033704708B5FFF7F5FFE3
:1056B000437B23F0020343730023836008BD08B5D6
:1056C0004FF02003EFF3118183F31288BFF36F8F44
:1056D000FFF7EBFF81F31188BFF36F8F08BD03461F
:1056E00020B9EFF305820AB9FBF7F0BD83F3118807
:1056F000BFF36F8F70474FF02003EFF3118083F3F8
:105700001288BFF36F8FFFF7EABF0346006883423A
:1057100008BF0020704710B54FF02003EFF311844D
:1057200083F31288BFF36F8FFEF710FC84F31188A8
:10573000BFF36F8F10BD10B501464FF02003EFF39C
:10574000118483F31288BFF36F8F10F80B3C13F0B2
:10575000280F0DD151F8103C18380BB1FFF7A5FFF9
:1057600011F80B3C23F0140301F80B3CFEF7EEFBA1
:1057700084F31188BFF36F8F10BD38B504460D4612
:10578000FEF738FC637B43F00203637395B12B682B
:10579000A5609D4215D0A3B194F90E1093F90E2087
:1057A000914208D0521A002A05DD5A68C4E9003235
:1057B00014605C6038BD6A68934202D01B68002B9D
:1057C000ECD16B68C4E900531C606C60F2E710B563
:1057D0004FF02003EFF3118483F31288BFF36F8F30
:1057E000FFF793FF014608B1FFF75FFF84F31188CD
:1057F000BFF36F8F084610BD38B54FF02003EFF3AD
:10580000118583F31288BFF36F8FFFF77EFF044685
:1058100020B1FFF74AFF183000F023F885F3118814
:10582000BFF36F8F204638BD38B54FF02003EFF33C
:10583000118583F31288BFF36F8FFFF766FF04466D
:1058400050B181674261FFF730FF183000F009F86E
:105850002046FEF77BFB012085F31188BFF36F8F95
:1058600038BD10B54FF02002EFF3118482F3128897
:10587000BFF36F8F03683BB1FEF714FE002084F383
:105880001188BFF36F8F10BD6FF01500F7E710B5EB
:105890004FF02003EFF3118483F31288BFF36F8F6F
:1058A000FEF7DAFD84F31188BFF36F8F10BD70B57A
:1058B00004460D464FF02003EFF3118683F3128860
:1058C000BFF36F8FFEF7C8FD012805DDA04203DBA3
:1058D00029462046FCF7A4FF86F31188BFF36F8F9B
:1058E00070BD08B5FEF7CEFE08BDFEF7CBBE08B111
:1058F000FBF7E4BF704710B50446FFF7B2FFB0B93D
:10590000636A0BB12046984704F11800FFF75FFF68
:1059100068B1FFF700FF4FF02003EFF3118083F32E
:105920001288BFF36F8FBDE81040FFF7D8BE10BDDF
:025930007047BE
:02593200FFFF75
:0859340000A8FF7F0100000044
:10593C00611800000000000045190000B459000077
:10594C00ED54000000000000B5360000000000001F
:10595C00D11E0000E4590000D11E0000CC590000FB
:10596C00DB5200000000000035230000FC59000051
:10597C00351D000000000000A51D00000000000007
:10598C00B526000000000000DF52000000000000FF
:10599C00494800000000000059210000145A000082
:0859AC00DD1B000000000000FB
:1059B4004A5E00004C5C0000305C00002C010020BA
:1059C400E0080020C45B0000675E00008C5C0000FF
:1059D400685C00003401002060090020BE5B000008
:1059E400595E00009C5C0000685C000030010020EF
:1059F4006C090020B85B0000835E0000E45C0000DA
:105A0400E85C00003C0100203C000020B25B000088
:105A1400755E000000000000AC5C0000380100204E
:085A240078090020AC5B0000D2
:105A2C00DD2C00000353000000000000014F0000BB
:105A3C0000000000014F000000000000014F0000BA
:105A4C0000000000014F000000000000014F0000AA
:105A5C00753200000353000000000000014F0000ED
:105A6C0000000000014F000000000000014F00008A
:105A7C0000000000014F000000000000014F00007A
:105A8C00145A0000C920000000000000014F000063
:105A9C0000000000014F000000000000014F00005A
:105AAC0000000000014F000000000000352700003E
:105ABC0000000000014F000000000000014F00003A
